:10000000ECEF03F00000000056EF04F000000000E9
:0A0010000000000000000000F3D71C
:0A001C00070E0D6E0D2EFED7120028
:100026000450085E0550D8A0053C095E0650D8A0CD
:10003600063C0A5E0750D8A0073C0B5E0336070E47
:100046000C6E0334083609360A360B36045003A004
:100056000ED0085E0550D8A0053C095E0650D8A013
:10006600063C0A5E0750D8A0073C0B5E0DD008265A
:100076000550D8B0053C09260650D8B0063C0A26DD
:100086000750D8B0073C0B2603360C2EDAD70234BD
:10009600083609360A360B36045003A00ED0085E21
:1000A6000550D8A0053C095E0650D8A0063C0A5E5D
:1000B6000750D8A0073C0B5E0DD008260550D8B0D7
:1000C600053C09260650D8B0063C0A260750D8B08B
:1000D600073C0B260236070E0C6E0234083609362C
:1000E6000A360B36045002A00ED0085E0550D8A082
:1000F600053C095E0650D8A0063C0A5E0750D8A00B
:10010600073C0B5E0DD008260550D8B0053C0926E5
:100116000650D8B0063C0A260750D8B0073C0B2636
:1001260002360C2EDAD70134083609360A360B3673
:10013600045002A00ED0085E0550D8A0053C095E0A
:100146000650D8A0063C0A5E0750D8A0073C0B5EB6
:100156000DD008260550D8B0053C09260650D8B063
:10016600063C0A260750D8B0073C0B260136070E78
:100176000C6E0134083609360A360B36045001A0D7
:100186000ED0085E0550D8A0053C095E0650D8A0E2
:10019600063C0A5E0750D8A0073C0B5E0DD0082629
:1001A6000550D8B0053C09260650D8B0063C0A26AC
:1001B6000750D8B0073C0B2601360C2EDAD7003490
:1001C600083609360A360B36045001A00ED0085EF2
:1001D6000550D8A0053C095E0650D8A0063C0A5E2C
:1001E6000750D8A0073C0B5E0DD008260550D8B0A6
:1001F600053C09260650D8B0063C0A260750D8B05A
:10020600073C0B260036070E0C6E003408360936FE
:100216000A360B36045000A00ED0085E0550D8A052
:10022600053C095E0650D8A0063C0A5E0750D8A0D9
:10023600073C0B5E0DD008260550D8B0053C0926B4
:100246000650D8B0063C0A260750D8B0073C0B2605
:1002560000360C2EDAD700B00ED004500826055012
:10026600D8B0053C09260650D8B0063C0A260750E9
:08027600D8B0073C0B26120072
:10027E000B1E0A1E091E081E082AD8B4092AD8B455
:08028E000A2AD8B40B2A120061
:100296000B6A0A6A096A00500402F4CF09F0F3CF28
:1002A60008F001500502F4CF0BF0F3CF0AF000502E
:1002B6000502F3500926F4500A22E86A0B2201507F
:1002C6000402F3500926F4500A22E86A0B2208C0F9
:1002D60000F009C001F00AC002F00BC003F01200E2
:1002E6000B6A0A6A096A086A0E6A033408360450F9
:1002F600085E0550D8A0053C095E0650D8A0063C0D
:100306000A5E0750D8A0073C0B5EE86AD8A0010E2B
:100316000E5E0336070E0C6E0334083609360A36AF
:100326000B360E36045003A012D0085E0550D8A036
:10033600053C095E0650D8A0063C0A5E0750D8A0C8
:10034600073C0B5EE86AD8A0010E0E5E11D00826A7
:100356000550D8B0053C09260650D8B0063C0A26FA
:100366000750D8B0073C0B26E86AD8B0010E0E2617
:1003760003360C2ED1D70234083609360A360B3628
:100386000E36045003A012D0085E0550D8A0053CD6
:10039600095E0650D8A0063C0A5E0750D8A0073C66
:1003A6000B5EE86AD8A0010E0E5E11D00826055035
:1003B600D8B0053C09260650D8B0063C0A26075098
:1003C600D8B0073C0B26E86AD8B0010E0E260236D6
:1003D600070E0C6E0234083609360A360B360E3610
:1003E600045002A012D0085E0550D8A0053C095E54
:1003F6000650D8A0063C0A5E0750D8A0073C0B5E04
:10040600E86AD8A0010E0E5E11D008260550D8B0B5
:10041600053C09260650D8B0063C0A260750D8B037
:10042600073C0B26E86AD8B0010E0E2602360C2EC3
:10043600D1D70134083609360A360B360E36045043
:1004460002A012D0085E0550D8A0053C095E0650F1
:10045600D8A0063C0A5E0750D8A0073C0B5EE86AA7
:10046600D8A0010E0E5E11D008260550D8B0053C66
:1004760009260650D8B0063C0A260750D8B0073CD5
:100486000B26E86AD8B0010E0E260136070E0C6E52
:100496000134083609360A360B360E36045001A0EA
:1004A60012D0085E0550D8A0053C095E0650D8A0BB
:1004B600063C0A5E0750D8A0073C0B5EE86AD8A047
:1004C600010E0E5E11D008260550D8B0053C09264F
:1004D6000650D8B0063C0A260750D8B0073C0B2673
:1004E600E86AD8B0010E0E2601360C2ED1D700349C
:1004F600083609360A360B360E36045001A012D0DD
:10050600085E0550D8A0053C095E0650D8A0063CFA
:100516000A5E0750D8A0073C0B5EE86AD8A0010E19
:100526000E5E11D008260550D8B0053C09260650A7
:10053600D8B0063C0A260750D8B0073C0B26E86A16
:10054600D8B0010E0E260036070E0C6E00340836A3
:1005560009360A360B360E36045000A012D0085E55
:100566000550D8A0053C095E0650D8A0063C0A5E98
:100576000750D8A0073C0B5EE86AD8A0010E0E5EB5
:1005860011D008260550D8B0053C09260650D8B02B
:10059600063C0A260750D8B0073C0B26E86AD8B0B6
:1005A600010E0E2600360C2ED1D700B00ED0045008
:1005B60008260550D8B0053C09260650D8B0063C9A
:0C05C6000A260750D8B0073C0B26120094
:1005D2003F0E3C6E060E3D6E5B0E3E6E4F0E3F6E44
:1005E200660E406E6D0E416E7D0E426E070E436EBC
:1005F2007F0E446E6F0E456E3C0EE96E000EEA6E83
:0E0602003B50E926D8B0EA2AEECF00F01200F5
:100610000900F5CFE6FF0006FBE10106F9E1120053
:10062000220E0C6E086A096A0A6A0B6A0C06D8B4B4
:100630001FD0D8900B320A3209320832033202320C
:1006400001320032D8A0F2D70C06D8B409D0045039
:1006500008260550092206500A2207500B22EAD725
:10066000045008260550092206500A2207500B2282
:02067000120076
:100672000C6A07BE0C2A0D6A0B6A0A6A096A086AC2
:100682000350021001100010D8B484D00350071890
:100692000E6E0EBE0D1E07AE0BD0041E051E061EEC
:1006A200071E042AD8B4052AD8B4062AD8B4072AC1
:1006B20003AE0BD0001E011E021E031E002AD8B478
:1006C200012AD8B4022AD8B4032A035007100E6EA6
:1006D2000EBE1CD0A7DC0CBE36D00DAE5BD0001E09
:1006E200011E021E031E002AD8B4012AD8B4022A0F
:1006F200D8B4032A081E091E0A1E0B1E082AD8B4E3
:10070200092AD8B40A2AD8B40B2A44D007AE15D085
:1007120003BE0DD003500B6E02500A6E0150096EDB
:100722000050086E036A026A016A006AD6D7036A39
:10073200026A016A006A002A000C031E021E011EE0
:10074200001E0C8EC7D7082AD8B4092AD8B40A2AA0
:10075200D8B40B2A0450085CD8A4BFD70550095C52
:10076200D8A4BBD706500A5CD8A4B7D707500B5CF5
:10077200D8A4B3D70B6A0A6A096A086A002AD8B4ED
:10078200012AD8B4022AD8B4032A03AEA6D70E6A25
:100792000E88FF0C0E6A0CA001D070DD000F120053
:1007A200C26A070EC012C08E32C000F0003600903E
:1007B200003600900050C212C2802FDCC282C2A258
:1007C20001D0FDD7C4CF01F0006AC3500012000E61
:0607D2000112C2901200AA
:1007D800010E236E246A256A266A276A286A6E0E25
:1007E800D36E020EC16E800EC012FF0E926E936A17
:1007F800946A819081928194C40ED56E640ED66EEF
:10080800A00EF26E060E0B6E130E0C6EAD0E0D6E74
:100818000D2EFED70C2EFCD70B2EFAD700000000A9
:10082800070E326EBADF00C02EF001C02FF0000EA6
:10083800026E036E880E046E130E056E000E066EB1
:10084800076EEADE00C029F001C02AF002C02BF0D2
:1008580003C02CF0FF0E046E030E056E000E066E2C
:10086800076E03DF00C029F001C02AF002C02BF098
:1008780003C02CF000C025F001C026F002C027F00C
:1008880003C028F0020E0B6E450E0C6EA90E0D6EFD
:100898000D2EFED70C2EFCD70B2EFAD70000000029
:0408A800BFD7FFD7E0
:1008AC0000C022F001C021F002C020F003C01FF0F4
:1008BC0004C01EF005C01DF006C01CF007C01BF0E4
:1008CC0008C01AF009C019F00AC018F00BC017F0D4
:1008DC000CC016F00EC015F0640ED66E200EF26E23
:1008EC00232A2350040802E2010E236E819681B65E
:1008FC0002D0819401D0818481B402D0819201D044
:10090C00818281B202D0819001D08180E80E046E88
:10091C00030E056E000E066E076E25C000F026C095
:10092C0001F027C002F028C003F0D7DC00C024F08F
:10093C00000E016EE80E046E030E056EA6DC25C0DB
:10094C0004F026C005F027C006F028C007F00050C0
:10095C00045E0150055A000E01BEFF0E065A075ADE
:10096C0004C000F005C001F006C002F007C003F09F
:10097C00640E046E000E056E066E076EAEDC00C0D3
:10098C0030F024C000F0000E016EE80E046E030E71
:10099C00056E7BDC25C037F026C038F027C039F057
:1009AC0028C03AF00050375E0150385A000E01BE94
:1009BC00FF0E395A3A5A640E3002F3CF00F0F4CFDE
:1009CC0001F037C033F038C034F039C035F03AC0DC
:1009DC0036F00050335E0150345A000E01BEFF0E4B
:1009EC00355A365A0A0E046E000E056E066E076EE8
:1009FC0033C000F034C001F035C002F036C003F053
:100A0C006CDC00C031F033C02DF00A0E0002F3CFC5
:100A1C0000F000502D5E40D02DC03BF0D4DD00C066
:100A2C0082FF818045D031C03BF0CDDD00C082FF1C
:100A3C00000E285C08E1000E275C05E1000E265C28
:100A4C0002E10A0E255C01E3818232D030C03BF01A
:100A5C00BADD00C082FF000E285C08E1000E275CA6
:100A6C0005E1000E265C02E1640E255C01E3818445
:100A7C001FD024C03BF0A7DD00C082FF000E285C15
:100A8C0008E1000E275C05E1030E265C02E1E80E8E
:100A9C00255C01E381860CD02350010ABDE0235074
:100AAC00020AC1E02350030AD1E02350040AE1E01A
:100ABC0022C000F021C001F020C002F01FC003F0E2
:100ACC001EC004F01DC005F01CC006F01BC007F0D2
:100ADC001AC008F019C009F018C00AF017C00BF0C2
:0A0AEC0016C00CF015C00EF011004A
:020000040030CA
:0D000100021F1EFF8381FF0FC00FE00F40A4
:00000001FF
